{
  "contractName": "SupplyChain",
  "abi": [
    {
      "anonymous": false,
      "inputs": [
        {
          "indexed": false,
          "internalType": "uint256",
          "name": "id",
          "type": "uint256"
        },
        {
          "indexed": false,
          "internalType": "string",
          "name": "name",
          "type": "string"
        },
        {
          "indexed": false,
          "internalType": "address",
          "name": "producer",
          "type": "address"
        }
      ],
      "name": "ProductCreated",
      "type": "event"
    },
    {
      "anonymous": false,
      "inputs": [
        {
          "indexed": false,
          "internalType": "uint256",
          "name": "id",
          "type": "uint256"
        },
        {
          "indexed": false,
          "internalType": "enum SupplyChain.State",
          "name": "state",
          "type": "uint8"
        }
      ],
      "name": "StateUpdated",
      "type": "event"
    },
    {
      "inputs": [],
      "name": "productCounter",
      "outputs": [
        {
          "internalType": "uint256",
          "name": "",
          "type": "uint256"
        }
      ],
      "stateMutability": "view",
      "type": "function"
    },
    {
      "inputs": [
        {
          "internalType": "uint256",
          "name": "",
          "type": "uint256"
        }
      ],
      "name": "products",
      "outputs": [
        {
          "internalType": "uint256",
          "name": "id",
          "type": "uint256"
        },
        {
          "internalType": "string",
          "name": "name",
          "type": "string"
        },
        {
          "internalType": "enum SupplyChain.State",
          "name": "state",
          "type": "uint8"
        },
        {
          "internalType": "address",
          "name": "producer",
          "type": "address"
        },
        {
          "internalType": "address",
          "name": "owner",
          "type": "address"
        },
        {
          "internalType": "uint256",
          "name": "timestamp",
          "type": "uint256"
        }
      ],
      "stateMutability": "view",
      "type": "function"
    },
    {
      "inputs": [
        {
          "internalType": "string",
          "name": "_name",
          "type": "string"
        }
      ],
      "name": "createProduct",
      "outputs": [],
      "stateMutability": "nonpayable",
      "type": "function"
    },
    {
      "inputs": [
        {
          "internalType": "uint256",
          "name": "_id",
          "type": "uint256"
        },
        {
          "internalType": "enum SupplyChain.State",
          "name": "_state",
          "type": "uint8"
        }
      ],
      "name": "updateState",
      "outputs": [],
      "stateMutability": "nonpayable",
      "type": "function"
    },
    {
      "inputs": [
        {
          "internalType": "string",
          "name": "_name",
          "type": "string"
        },
        {
          "internalType": "enum SupplyChain.State",
          "name": "_state",
          "type": "uint8"
        }
      ],
      "name": "queryProductsByNameAndState",
      "outputs": [
        {
          "components": [
            {
              "internalType": "uint256",
              "name": "id",
              "type": "uint256"
            },
            {
              "internalType": "string",
              "name": "name",
              "type": "string"
            },
            {
              "internalType": "enum SupplyChain.State",
              "name": "state",
              "type": "uint8"
            },
            {
              "internalType": "address",
              "name": "producer",
              "type": "address"
            },
            {
              "internalType": "address",
              "name": "owner",
              "type": "address"
            },
            {
              "internalType": "uint256",
              "name": "timestamp",
              "type": "uint256"
            }
          ],
          "internalType": "struct SupplyChain.Product[]",
          "name": "",
          "type": "tuple[]"
        }
      ],
      "stateMutability": "view",
      "type": "function"
    }
  ],
  "bytecode": "0x608060405234801561001057600080fd5b50611791806100206000396000f3fe608060405234801561001057600080fd5b50600436106100575760003560e01c806302ec06be1461005c5780631f16653b146100785780634ddf62f9146100965780637acc0b20146100c6578063ffbafdfe146100fb575b600080fd5b61007660048036038101906100719190610eb4565b610117565b005b61008061032f565b60405161008d9190611364565b60405180910390f35b6100b060048036038101906100ab9190610ef5565b610335565b6040516100bd91906112e2565b60405180910390f35b6100e060048036038101906100db9190610f49565b61080d565b6040516100f2969594939291906113e6565b60405180910390f35b61011560048036038101906101109190610f72565b61091e565b005b6001600081548092919061012a9061160a565b91905055506040518060c00160405280600154815260200182815260200160006002811115610182577f4e487b7100000000000000000000000000000000000000000000000000000000600052602160045260246000fd5b81526020013373ffffffffffffffffffffffffffffffffffffffff1681526020013373ffffffffffffffffffffffffffffffffffffffff1681526020014281525060008060015481526020019081526020016000206000820151816000015560208201518160010190805190602001906101fd929190610ce5565b5060408201518160020160006101000a81548160ff0219169083600281111561024f577f4e487b7100000000000000000000000000000000000000000000000000000000600052602160045260246000fd5b021790555060608201518160020160016101000a81548173ffffffffffffffffffffffffffffffffffffffff021916908373ffffffffffffffffffffffffffffffffffffffff16021790555060808201518160030160006101000a81548173ffffffffffffffffffffffffffffffffffffffff021916908373ffffffffffffffffffffffffffffffffffffffff16021790555060a082015181600401559050507faf6ffb6277511513e7d579327cc1fc57f0266df2fb11a60b13487b8c9cd2c3886001548233604051610324939291906113a8565b60405180910390a150565b60015481565b6060600080600190505b600154811161043f57848051906020012060008083815260200190815260200160002060010160405161037291906112cb565b604051809103902014801561041857508360028111156103bb577f4e487b7100000000000000000000000000000000000000000000000000000000600052602160045260246000fd5b60008083815260200190815260200160002060020160009054906101000a900460ff166002811115610416577f4e487b7100000000000000000000000000000000000000000000000000000000600052602160045260246000fd5b145b1561042c5781806104289061160a565b9250505b80806104379061160a565b91505061033f565b5060008167ffffffffffffffff811115610482577f4e487b7100000000000000000000000000000000000000000000000000000000600052604160045260246000fd5b6040519080825280602002602001820160405280156104bb57816020015b6104a8610d6b565b8152602001906001900390816104a05790505b509050600080600190505b60015481116108005786805190602001206000808381526020019081526020016000206001016040516104f991906112cb565b604051809103902014801561059f5750856002811115610542577f4e487b7100000000000000000000000000000000000000000000000000000000600052602160045260246000fd5b60008083815260200190815260200160002060020160009054906101000a900460ff16600281111561059d577f4e487b7100000000000000000000000000000000000000000000000000000000600052602160045260246000fd5b145b156107ed576000808281526020019081526020016000206040518060c0016040529081600082015481526020016001820180546105db906115d8565b80601f0160208091040260200160405190810160405280929190818152602001828054610607906115d8565b80156106545780601f1061062957610100808354040283529160200191610654565b820191906000526020600020905b81548152906001019060200180831161063757829003601f168201915b505050505081526020016002820160009054906101000a900460ff1660028111156106a8577f4e487b7100000000000000000000000000000000000000000000000000000000600052602160045260246000fd5b60028111156106e0577f4e487b7100000000000000000000000000000000000000000000000000000000600052602160045260246000fd5b81526020016002820160019054906101000a900473ffffffffffffffffffffffffffffffffffffffff1673ffffffffffffffffffffffffffffffffffffffff1673ffffffffffffffffffffffffffffffffffffffff1681526020016003820160009054906101000a900473ffffffffffffffffffffffffffffffffffffffff1673ffffffffffffffffffffffffffffffffffffffff1673ffffffffffffffffffffffffffffffffffffffff1681526020016004820154815250508383815181106107d3577f4e487b7100000000000000000000000000000000000000000000000000000000600052603260045260246000fd5b602002602001018190525081806107e99061160a565b9250505b80806107f89061160a565b9150506104c6565b5081935050505092915050565b6000602052806000526040600020600091509050806000015490806001018054610836906115d8565b80601f0160208091040260200160405190810160405280929190818152602001828054610862906115d8565b80156108af5780601f10610884576101008083540402835291602001916108af565b820191906000526020600020905b81548152906001019060200180831161089257829003601f168201915b5050505050908060020160009054906101000a900460ff16908060020160019054906101000a900473ffffffffffffffffffffffffffffffffffffffff16908060030160009054906101000a900473ffffffffffffffffffffffffffffffffffffffff16908060040154905086565b6000806000848152602001908152602001600020905060008160000154141561097c576040517f08c379a000000000000000000000000000000000000000000000000000000000815260040161097390611304565b60405180910390fd5b3373ffffffffffffffffffffffffffffffffffffffff168160030160009054906101000a900473ffffffffffffffffffffffffffffffffffffffff1673ffffffffffffffffffffffffffffffffffffffff1614610a0e576040517f08c379a0000000000000000000000000000000000000000000000000000000008152600401610a0590611324565b60405180910390fd5b60006002811115610a48577f4e487b7100000000000000000000000000000000000000000000000000000000600052602160045260246000fd5b8160020160009054906101000a900460ff166002811115610a92577f4e487b7100000000000000000000000000000000000000000000000000000000600052602160045260246000fd5b148015610b0f575060016002811115610ad4577f4e487b7100000000000000000000000000000000000000000000000000000000600052602160045260246000fd5b826002811115610b0d577f4e487b7100000000000000000000000000000000000000000000000000000000600052602160045260246000fd5b145b80610c16575060016002811115610b4f577f4e487b7100000000000000000000000000000000000000000000000000000000600052602160045260246000fd5b8160020160009054906101000a900460ff166002811115610b99577f4e487b7100000000000000000000000000000000000000000000000000000000600052602160045260246000fd5b148015610c155750600280811115610bda577f4e487b7100000000000000000000000000000000000000000000000000000000600052602160045260246000fd5b826002811115610c13577f4e487b7100000000000000000000000000000000000000000000000000000000600052602160045260246000fd5b145b5b610c55576040517f08c379a0000000000000000000000000000000000000000000000000000000008152600401610c4c90611344565b60405180910390fd5b818160020160006101000a81548160ff02191690836002811115610ca2577f4e487b7100000000000000000000000000000000000000000000000000000000600052602160045260246000fd5b02179055507f5f37cb0e663bb52ce92e7edf0e34cd00146463aea0dabf3dd721dbd522ec98588383604051610cd892919061137f565b60405180910390a1505050565b828054610cf1906115d8565b90600052602060002090601f016020900481019282610d135760008555610d5a565b82601f10610d2c57805160ff1916838001178555610d5a565b82800160010185558215610d5a579182015b82811115610d59578251825591602001919060010190610d3e565b5b509050610d679190610e05565b5090565b6040518060c00160405280600081526020016060815260200160006002811115610dbe577f4e487b7100000000000000000000000000000000000000000000000000000000600052602160045260246000fd5b8152602001600073ffffffffffffffffffffffffffffffffffffffff168152602001600073ffffffffffffffffffffffffffffffffffffffff168152602001600081525090565b5b80821115610e1e576000816000905550600101610e06565b5090565b6000610e35610e308461147f565b61144e565b905082815260208101848484011115610e4d57600080fd5b610e58848285611596565b509392505050565b600081359050610e6f81611734565b92915050565b600082601f830112610e8657600080fd5b8135610e96848260208601610e22565b91505092915050565b600081359050610eae81611744565b92915050565b600060208284031215610ec657600080fd5b600082013567ffffffffffffffff811115610ee057600080fd5b610eec84828501610e75565b91505092915050565b60008060408385031215610f0857600080fd5b600083013567ffffffffffffffff811115610f2257600080fd5b610f2e85828601610e75565b9250506020610f3f85828601610e60565b9150509250929050565b600060208284031215610f5b57600080fd5b6000610f6984828501610e9f565b91505092915050565b60008060408385031215610f8557600080fd5b6000610f9385828601610e9f565b9250506020610fa485828601610e60565b9150509250929050565b6000610fba8383611224565b905092915050565b610fcb81611535565b82525050565b610fda81611535565b82525050565b6000610feb826114d4565b610ff581856114f7565b935083602082028501611007856114af565b8060005b8581101561104357848403895281516110248582610fae565b945061102f836114ea565b925060208a0199505060018101905061100b565b50829750879550505050505092915050565b60008154611062816115d8565b61106c8186611508565b945060018216600081146110875760018114611098576110cb565b60ff198316865281860193506110cb565b6110a1856114bf565b60005b838110156110c3578154818901526001820191506020810190506110a4565b838801955050505b50505092915050565b6110dd81611584565b82525050565b6110ec81611584565b82525050565b60006110fd826114df565b6111078185611513565b93506111178185602086016115a5565b6111208161170f565b840191505092915050565b6000611136826114df565b6111408185611524565b93506111508185602086016115a5565b6111598161170f565b840191505092915050565b6000611171601683611524565b91507f50726f6475637420646f6573206e6f74206578697374000000000000000000006000830152602082019050919050565b60006111b1601c83611524565b91507f4e6f7420746865206f776e6572206f66207468652070726f64756374000000006000830152602082019050919050565b60006111f1601883611524565b91507f496e76616c6964207374617465207472616e736974696f6e00000000000000006000830152602082019050919050565b600060c08301600083015161123c60008601826112ad565b506020830151848203602086015261125482826110f2565b915050604083015161126960408601826110d4565b50606083015161127c6060860182610fc2565b50608083015161128f6080860182610fc2565b5060a08301516112a260a08601826112ad565b508091505092915050565b6112b68161157a565b82525050565b6112c58161157a565b82525050565b60006112d78284611055565b915081905092915050565b600060208201905081810360008301526112fc8184610fe0565b905092915050565b6000602082019050818103600083015261131d81611164565b9050919050565b6000602082019050818103600083015261133d816111a4565b9050919050565b6000602082019050818103600083015261135d816111e4565b9050919050565b600060208201905061137960008301846112bc565b92915050565b600060408201905061139460008301856112bc565b6113a160208301846110e3565b9392505050565b60006060820190506113bd60008301866112bc565b81810360208301526113cf818561112b565b90506113de6040830184610fd1565b949350505050565b600060c0820190506113fb60008301896112bc565b818103602083015261140d818861112b565b905061141c60408301876110e3565b6114296060830186610fd1565b6114366080830185610fd1565b61144360a08301846112bc565b979650505050505050565b6000604051905081810181811067ffffffffffffffff82111715611475576114746116e0565b5b8060405250919050565b600067ffffffffffffffff82111561149a576114996116e0565b5b601f19601f8301169050602081019050919050565b6000819050602082019050919050565b60008190508160005260206000209050919050565b600081519050919050565b600081519050919050565b6000602082019050919050565b600082825260208201905092915050565b600081905092915050565b600082825260208201905092915050565b600082825260208201905092915050565b60006115408261155a565b9050919050565b600081905061155582611720565b919050565b600073ffffffffffffffffffffffffffffffffffffffff82169050919050565b6000819050919050565b600061158f82611547565b9050919050565b82818337600083830152505050565b60005b838110156115c35780820151818401526020810190506115a8565b838111156115d2576000848401525b50505050565b600060028204905060018216806115f057607f821691505b60208210811415611604576116036116b1565b5b50919050565b60006116158261157a565b91507fffffffffffffffffffffffffffffffffffffffffffffffffffffffffffffffff82141561164857611647611653565b5b600182019050919050565b7f4e487b7100000000000000000000000000000000000000000000000000000000600052601160045260246000fd5b7f4e487b7100000000000000000000000000000000000000000000000000000000600052602160045260246000fd5b7f4e487b7100000000000000000000000000000000000000000000000000000000600052602260045260246000fd5b7f4e487b7100000000000000000000000000000000000000000000000000000000600052604160045260246000fd5b6000601f19601f8301169050919050565b6003811061173157611730611682565b5b50565b6003811061174157600080fd5b50565b61174d8161157a565b811461175857600080fd5b5056fea264697066735822122089e188c3e8a3d6b186299a9b663c01645015d0cf3a627e2ddd81c02a77ae32ca64736f6c63430008000033",
  "immutableReferences": {},
  "source": "// SPDX-License-Identifier: MIT\r\npragma solidity ^0.8.0;\r\n\r\ncontract SupplyChain {\r\n    enum State { Produced, InTransit, Delivered }\r\n\r\n    struct Product {\r\n        uint id;\r\n        string name;\r\n        State state;\r\n        address producer;\r\n        address owner;\r\n        uint timestamp;\r\n    }\r\n\r\n    mapping(uint => Product) public products;\r\n    uint public productCounter;\r\n\r\n    event ProductCreated(uint id, string name, address producer);\r\n    event StateUpdated(uint id, State state);\r\n\r\n    // Function to create a new product\r\n    function createProduct(string memory _name) public {\r\n        productCounter++;\r\n        products[productCounter] = Product({\r\n            id: productCounter,\r\n            name: _name,\r\n            state: State.Produced,\r\n            producer: msg.sender,\r\n            owner: msg.sender,\r\n            timestamp: block.timestamp // Set timestamp at product creation\r\n        });\r\n\r\n        emit ProductCreated(productCounter, _name, msg.sender);\r\n    }\r\n\r\n    // Function to update the state of an existing product\r\n    function updateState(uint _id, State _state) public {\r\n        Product storage product = products[_id];\r\n        require(product.id != 0, \"Product does not exist\");\r\n        require(product.owner == msg.sender, \"Not the owner of the product\");\r\n\r\n        // Ensure valid state transition\r\n        require(\r\n            (product.state == State.Produced && _state == State.InTransit) ||\r\n            (product.state == State.InTransit && _state == State.Delivered),\r\n            \"Invalid state transition\"\r\n        );\r\n\r\n        // Update product state and, optionally, ownership\r\n        product.state = _state;\r\n        \r\n        // Emit an event after updating state\r\n        emit StateUpdated(_id, _state);\r\n    }\r\n\r\n    // Function to query products by name and state\r\n    function queryProductsByNameAndState(string memory _name, State _state) public view returns (Product[] memory) {\r\n        uint count = 0;\r\n\r\n        // Count the number of matching products\r\n        for (uint i = 1; i <= productCounter; i++) {\r\n            if (keccak256(bytes(products[i].name)) == keccak256(bytes(_name)) && products[i].state == _state) {\r\n                count++;\r\n            }\r\n        }\r\n\r\n        // Initialize the array of results\r\n        Product[] memory result = new Product[](count);\r\n        uint index = 0;\r\n\r\n        // Populate the result array with matching products\r\n        for (uint i = 1; i <= productCounter; i++) {\r\n            if (keccak256(bytes(products[i].name)) == keccak256(bytes(_name)) && products[i].state == _state) {\r\n                result[index] = products[i];\r\n                index++;\r\n            }\r\n        }\r\n\r\n        return result;\r\n    }\r\n}\r\n",
  "sourcePath": "C:\\Users\\mahizsk\\OneDrive\\Desktop\\food_new2\\contracts\\SupplyChain.sol",
  "compiler": {
    "name": "solc",
    "version": "0.8.0+commit.c7dfd78e.Emscripten.clang"
  },
  "schemaVersion": "3.4.16",
  "updatedAt": "2024-11-01T12:10:47.022Z",
  "devdoc": {
    "kind": "dev",
    "methods": {},
    "version": 1
  },
  "userdoc": {
    "kind": "user",
    "methods": {},
    "version": 1
  }
}